:1000000014C0D5C0DFC04AC049C048C047C0E5C021
:1000100045C044C043C042C041C040C03FC03EC0D4
:100020003DC03CC03BC03AC039C011241FBECFED1B
:10003000CDBF83E08ABB8EED87BB82E781BB1BBA55
:1000400080E188BB85E682BBDED042D083E880BFFA
:1000500082E083BF81E88FBD8AE08EBD1BBC85B77F
:100060008F7A85BF10E0A0E6B0E0E6E4F6E002C0DB
:1000700005900D92A438B107D9F720E0A4E8B0E0CC
:1000800001C01D92A539B207E1F7E4D080E690E007
:1000900036D08DE890E02ED148D2D3C2B1CFAED0C9
:1000A00085B7806285BF889585B78F7D85BFA9C0DC
:1000B000949A089582B312BA08958AEF86BF8ABDD2
:1000C00008958AE086BF8ABD089508950895089529
:1000D0008AE18DB980E48EB912B88CE089B982E0EA
:1000E0008BB988E98AB986E083B908958CB95E9B9B
:1000F000FECF5E9A08958AE0F9DF8DE0F7CFCF93C7
:10010000DF93EC018991F2DF88818111FBCFDF91D0
:10011000CF91F1CF0F931F93CF93DF93CDB7DD270F
:10012000C350CDBF9C0160E177E277D2E62F972FD5
:10013000862F60EF78ED60D2280F391FC90168EE75
:1001400073E06BD2162F972F862F68EE73E054D290
:10015000281B390BC90164E670E05FD2AB01CB010B
:10016000992764E670E048D2B901681B790BCB018E
:100170006AE070E052D2082F80E38E0F49835A83E1
:100180006B83B4DF80E3810FB1DF498180E3840FAB
:10019000ADDF6B8180E3860FA9DF80E3800FA6DFF0
:1001A000CD5FCDBFDF91CF911F910F91A4CF1F9253
:1001B0000F920FB60F9211241BBE0F900FBE0F901F
:1001C0001F9018951F920F920FB60F9211241BBE0D
:1001D0000F900FBE0F901F9018951F920F920FB6A1
:1001E0000F9211248F931DBC1CBC8CB18093840092
:1001F0008F910F900FBE0F901F90189580EC8BBFC2
:1002000008951BBE089515BE1BBE0895CF93C82F39
:1002100088B318BA8BE041D08C2F3FD08C2F3DD0C3
:10022000C49ACF9108951F93CF93DF931F92CDB7B8
:10023000DD27182F88B318BA8AE069832ED0812F62
:100240002CD06981862F29D0C49A0F90DF91CF914D
:100250001F91089560E081E2E6DF66E980E2E3DF76
:1002600060E084E2E0DF62E383E2DDDF60E086E21B
:10027000DADF65E085E2D7DF6FEF87E2D4DF60E9A0
:100280008AE2D1DF66E28DE2CECF8BE0BFDF86FB74
:10029000882780F9089588E0B9CF8FB98BE17699E6
:1002A00002C08DB9FCCF80E48EB98FB10895CF9391
:1002B000DF93EC018881823011F0833021F486E0F5
:1002C00088831C821B828981843011F0853031F44F
:1002D00086E0898381E090E09C838B83CE01F7DE0A
:1002E000CE01F3DECE01E6DE18821C821B82DF9196
:1002F000CF910895FC0186E08083818382831482FC
:1003000013821682178215820895CF93DF93EC0132
:10031000DCDECE01CFDE18821C821B82DF91CF9102
:100320000895FC018081823021F0833011F0811129
:1003300004C086E08083148213828181843019F0A6
:10034000853009F0089586E0818381E090E0948310
:100350008383CF01BCCEFC018081863031F481E003
:100360009181963019F480E0089581E0089580E04D
:100370000895AF92BF92CF92DF92EF92FF920F93C8
:100380001F93CF93DF93EC011C821B8286E0D82E53
:1003900092E0E92E01E010E025E0C22E34E0A32E29
:1003A00043E0B42E8B819C818230910508F073C0AC
:1003B000FE01E80FF91F8081833009F447C028F45B
:1003C000882351F0823069F160C0843009F450C054
:1003D000853009F454C059C08E818823F9F0D88241
:1003E0001C821B82CE0172DEFA8086E0F81671F064
:1003F00082E0F81631F083E0F8120CC0CE015ADE2C
:1004000002C0CE0155DEF882FA8204C0CE0150DE71
:10041000E882EA82C9821C830B8337C0CE013FDEAB
:1004200034C08F81882319F0CE0141DF2EC0CE0168
:1004300036DE8E81882349F1D8821C821B82CE0150
:1004400039DEB8821C821B82BA821FC08F81811163
:10045000EBCFCE0124DE8E818823B9F0D8821C82B6
:100460001B82CE0125DEE8821C821B82EA820DC03F
:100470008D8181110AC01C830B83C98206C08D81C6
:10048000882319F01C830B83A9828B819C810196A0
:100490009C838B8387CF1E821F82DF91CF911F9118
:1004A0000F91FF90EF90DF90CF90BF90AF900895A5
:1004B000FC016230B9F028F4662349F0613061F044
:1004C00024C06430C9F098F06530D9F01EC081E0D6
:1004D00090819923D9F019C09081915081E0953095
:1004E000A8F013C081E09081923079F40FC081E0D0
:1004F0009081933051F40AC081E09181943029F4C5
:1005000005C081E09181953009F080E00895FC01FB
:1005100085810895FC016583089521E0FC0126830F
:10052000089521E0FC01278308958DE890E0EDDE39
:100530008DE690E0E4DD789411E086B38170C82FF9
:1005400020E0D22F80918B0090918C00880F991F12
:10055000C82BD92B81E090E0CD2B11F480E090E006
:1005600090938C0080938B00209186002223B1F120
:1005700020918500892B71F410928600211107C00B
:1005800083E790E0BCDD8DE890E0C7DF27C01092E4
:10059000850024C0211122C080918700909188009D
:1005A000A0918900B0918A00880F991FAA1FBB1FD4
:1005B00081608093870090938800A0938900B09316
:1005C0008A008F3F9F4FAF4FBF4F41F4109385007C
:1005D00089E790E094DD8DE890E0A3DF56DE682F98
:1005E00061278DE890E096DF8DE890E0C2DE8FEF26
:1005F00000008150E9F7A1CF0024552704C0080E60
:10060000591F880F991F009729F076956795B8F3C1
:100610007105B9F7802D952F0895AA1BBB1B51E1D9
:1006200007C0AA1FBB1FA617B70710F0A61BB70B62
:10063000881F991F5A95A9F780959095BC01CD0107
:060640000895F894FFCFBD
:100646007065726970682E20696E697400726561E2
:10065600647900636C69636B006C6F6E672D7072F2
:040666006573730045
:00000001FF
