:1000000014C0B9C0C3C047C046C045C044C0C9C081
:1000100042C041C040C03FC03EC03DC03CC03BC0EC
:100020003AC039C038C037C036C011241FBECFED2A
:10003000CDBF83E08ABB8FED87BB82E781BB1BBA54
:1000400080E188BB85E682BBC2D026D083E880BF32
:1000500082E083BF81E88FBD8AE08EBD1BBC85B77F
:100060008F7A85BF10E0A0E6B0E0E2E3F3E002C0E3
:1000700005900D92A23AB107D9F720E0A2EAB0E0CC
:1000800001C01D92A33AB207E1F7C8D081E690E023
:100090001AD0F1D04CC1B4CF8AE18DB980E48EB9C9
:1000A00012B88CE089B982E08BB988E98AB986E018
:1000B00083B908958CB95E9BFECF5E9A08958AE05D
:1000C000F9DF8DE0F7CFCF93DF93EC018991F2DF79
:1000D00088818111FBCFDF91CF91F1CF0F931F93D7
:1000E000CF93DF93CDB7DD27C350CDBF9C0160E137
:1000F00077E209D1E62F972F862F60EF78EDF2D0C7
:10010000280F391FC90168EE73E0FDD0162F972F15
:10011000862F68EE73E0E6D0281B390BC90164E630
:1001200070E0F1D0AB01CB01992764E670E0DAD042
:10013000B901681B790BCB016AE070E0E4D0082FAD
:1001400080E38E0F49835A836B83B4DF80E3810F92
:10015000B1DF498180E3840FADDF6B8180E3860FDF
:10016000A9DF80E3800FA6DFCD5FCDBFDF91CF9108
:100170001F910F91A4CF1F920F920FB60F921124CF
:100180001BBE0F900FBE0F901F9018951F920F92DD
:100190000FB60F9211241BBE0F900FBE0F901F9031
:1001A00018951F920F920FB60F9211248F931DBCBA
:1001B0001CBC8CB18093A2008F910F900FBE0F904A
:1001C0001F90189580EC8BBF08951BBE089515BE37
:1001D0001BBE0895CF93C82F88B318BA8BE041D0C7
:1001E0008C2F3FD08C2F3DD0C49ACF9108951F9370
:1001F000CF93DF931F92CDB7DD27182F88B318BA9E
:100200008AE069832ED0812F2CD06981862F29D056
:10021000C49A0F90DF91CF911F91089560E081E221
:10022000E6DF66E980E2E3DF60E084E2E0DF62E3EC
:1002300083E2DDDF60E086E2DADF65E085E2D7DFDA
:100240006FEF87E2D4DF60E98AE2D1DF66E28DE218
:10025000CECF8BE0BFDF86FB882780F9089588E04A
:10026000B9CF8FB98BE1769902C08DB9FCCF80E40C
:100270008EB98FB108958EE690E025DF8AEF86BFB4
:100280008ABD84E790E01FDF949A789411E0CAEF6A
:10029000DAE0DFDF811117C0109260008EE790E096
:1002A00012DF90DFC6BFCABD84E790E00CDF85B7E0
:1002B000806285BF889585B78F7D85BFD6BFDABD43
:1002C00085E890E008C080916000811106C010931D
:1002D000600080E990E0F7DEDCCF8FEF0000815016
:1002E000E9F7D7CF0024552704C0080E591F880FFF
:1002F000991F009729F076956795B8F37105B9F7BE
:10030000802D952F0895AA1BBB1B51E107C0AA1F82
:10031000BB1FA617B70710F0A61BB70B881F991FA6
:100320005A95A9F780959095BC01CD010895F89450
:02033000FFCFFD
:10033200017065726970682E20696E697400726559
:10034200616479006272616B6573206F6E007A7A04
:100352007A7A7A7A006272616B6573206F666600E0
:100362005768613F204F682E2049276D2075702EF7
:02037200000089
:00000001FF
