:100000001BC0FCC006C139C038C037C036C00CC1E7
:1000100034C033C032C031C030C02FC02EC02DC05C
:100020002CC02BC02AC029C028C084C288C28DC25F
:1000300091C295C299C29DC211241FBECFEDCDBF02
:1000400083E08ABB8EED87BB82E781BB1BBA81E16F
:1000500088BB85E682BBFED085B7806585BF20E082
:10006000A0E6B0E001C01D92A637B207E1F719D1B2
:100070008DE690E059D195D24AC3C2CF80916B00F2
:1000800090916C00892B41F4E0D085B7806285BFE8
:10009000889585B78F7D85BF089503D110BE13BEA7
:1000A0001FBC1EBC0000949A88B38C6088BB8FEF85
:1000B0009FEFDC0100000197A109B1090097A1059C
:1000C000B105C1F70895949A0895949808958AEF18
:1000D00086BF1BBC8ABD08958AE086BF1BBC8ABD53
:1000E000089588B3837F88BB0895DBD0F2D088B3AE
:1000F000837F88BB83E880BF82E083BF81E88FBDB8
:100100008AE08EBD00000895E7D010BE13BE1FBC6C
:100110001EBC000088B3837F88BB949808958AE151
:100120008DB980E48EB912B88CE089B982E08BB9C0
:1001300088E98AB986E083B908958CB95E9BFECFC1
:100140005E9A08958AE0F9DF8DE0F7CFCF93DF93D1
:10015000EC018991F2DF88818111FBCFDF91CF9192
:10016000F1CF0F931F93CF93DF93CDB7DD27C3500C
:10017000CDBF9C0160E177E2B6D2E62F972F862FA4
:1001800060EF78ED9FD2280F391FC90168EE73E048
:10019000AAD2162F972F862F68EE73E093D2281BD2
:1001A000390BC90164E670E09ED2AB01CB019927FF
:1001B00064E670E087D2B901681B790BCB016AE075
:1001C00070E091D2082F80E38E0F49835A836B83AE
:1001D000B4DF80E3810FB1DF498180E3840FADDFBD
:1001E0006B8180E3860FA9DF80E3800FA6DFCD5F00
:1001F000CDBFDF91CF911F910F91A4CF1F920F928E
:100200000FB60F9211241BBE0F900FBE0F901F90C0
:1002100018951F920F920FB60F9211241BBE0F90CC
:100220000FBE0F901F9018951F920F920FB60F924E
:1002300011248F931DBC1CBC8CB1809360008F91E6
:100240000F900FBE0F901F90189580EC8BBF0895F4
:100250001BBE089515BE1BBE0895CF93C82F88B34B
:1002600018BA8BE040D08C2F3ED08C2F3CD0C49A53
:10027000CF9108951F93CF93DF931F92CDB7DD27C2
:10028000182F88B318BA8AE069832DD0812F2BD01C
:100290006981862F28D0C49A0F90DF91CF911F914A
:1002A000089560E081E2E6DF66E980E2E3DF60E096
:1002B00084E2E0DF62E383E2DDDF60E086E2DADF52
:1002C00065E085E2D7DF6FEF87E2D4DF60E98AE29D
:1002D000D1CF66E28DE2CECF60E08DE2CBCF8BE076
:1002E000BCCF88E0BACF8FB98BE1769902C08DB9C7
:1002F000FCCF80E48EB98FB10895FC0180818230FB
:1003000011F0833021F487E080831482138281818D
:10031000843011F0853031F487E0818381E090E012
:1003200094838383CF01F0CEFC0187E080838183B7
:100330008283148213821682178210861582089592
:10034000FC011082148213820895FC0180818230A6
:1003500041F018F4882329F008C0833011F086306A
:1003600021F487E08083148213828181843019F024
:10037000853009F0089587E0818381E090E09483DF
:100380008383CF01C1CEFC018081873031F481E0CD
:100390009181973019F480E0089581E0089580E01C
:1003A00008959F92AF92BF92CF92DF92EF92FF9209
:1003B0000F931F93CF93DF93EC011C821B8287E086
:1003C000E82E92E0D92E26E0A22E01E010E034E0E3
:1003D000932E45E0C42E53E0B52E8B819C81823054
:1003E000910508F08DC0FE01E80FF91F8081833070
:1003F00009F457C028F4882379F0823099F17AC043
:10040000853009F46DC008F45FC0863009F072C011
:100410001C821B8218826EC08F81882301F1E882C2
:100420001C821B82CE0161DEFA8087E0F81681F023
:1004300082E0F81631F083E0F8124CC0CE0145DEC0
:1004400002C0CE0140DEF8821C821B82FA8242C0CA
:10045000CE0139DED8821C821B82DA823BC0CE01FB
:100460000DDE48C08885882321F0CE0146DF188242
:1004700008C08E81882341F0CE013FDFCE010DDE22
:10048000A8821C821B8236C08F81882399F1E88262
:100490001C821B82CE0119DEB8821C821B82BA82AA
:1004A00029C088858111E1CF8E818111E5CF8F81AF
:1004B000882301F1E8821C821B82CE0104DED882EF
:1004C0001C821B82DA8216C08D81811113C0E982E1
:1004D0001C830B83CE0100DEC9821C830B830AC000
:1004E0008D81882339F0E9821C830B83CE01EFDDF7
:1004F0009982F3CF8B819C8101969C838B836DCFF6
:100500001E821F821886DF91CF911F910F91FF905D
:10051000EF90DF90CF90BF90AF909F900895FC0137
:10052000462F50E04730510540F54B5E5F4F4F93EB
:100530005F93089581E09081992301F11EC090811D
:10054000915081E09530D0F018C081E090819230D8
:10055000A1F414C081E09081933079F40FC081E060
:100560009181943051F40AC081E09181953029F451
:1005700005C081E09081963009F080E00895FC018B
:1005800085810895FC016583089521E0FC0126839F
:10059000089521E0FC012783089521E0FC012087D4
:1005A00008958DE690E0CCDE7894C1E020B3217010
:1005B0002C2780916B0090916C00880F991F822BE3
:1005C00090936C0080936B00209162009F702111CA
:1005D00007C08F3F9F4009F062C0C09362005FC0B8
:1005E00020916100892BD9F410926200109263006F
:1005F00010926400109265001092660010926700DD
:10060000109268001092690010926A00211104C0D3
:100610008DE690E0BEDF43C01092610040C0211122
:100620003EC08091670090916800A0916900B091F0
:100630006A00880F991FAA1FBB1F81608093670003
:1006400090936800A0936900B0936A008F3F9F4F1A
:10065000AF4FBF4F21F58091630090916400A0914E
:100660006500B09166000196A11DB11D80936300E5
:1006700090936400A0936500B093660010926700A9
:10068000109268001092690010926A008097A1058C
:10069000B10529F4C09361008DE690E07EDF1FDE96
:1006A00087FF04C08DE690E070DF08C086FF02C0BF
:1006B00060E001C061E08DE690E064DF8DE690E0EF
:1006C00070DE74CF0024552704C0080E591F880F10
:1006D000991F009729F076956795B8F37105B9F7DA
:1006E000802D952F0895AA1BBB1B51E107C0AA1F9F
:1006F000BB1FA617B70710F0A61BB70B881F991FC3
:100700005A95A9F780959095BC01CD010895F8946C
:02071000FFCF19
:00000001FF
