:100000001BC0FFC009C140C03FC03EC03DC00FC1C2
:100010003BC03AC039C038C037C036C035C034C024
:1000200033C032C031C030C02FC08BC28FC294C227
:1000300098C29CC2A0C2A4C211241FBECFEDCDBFE6
:1000400083E08ABB8EED87BB82E781BB1BBA81E16F
:1000500088BB85E682BB01D183E880BF81E88FBD84
:1000600088E08EBD1BBC85B78F7A85BF20E0A0E6F7
:10007000B0E001C01D92A637B207E1F715D18DE6B9
:1000800090E055D195D24EC3BBCF83B7887F83BF55
:100090008EB5887F8EBD0000089580916B00909191
:1000A0006C00892B41F4D4D085B7806285BF8895D8
:1000B00085B78F7D85BF0895F7D0E7DF949A88B321
:1000C0008C6088BB8FEF9FEFDC0100000197A109D6
:1000D000B1090097A105B105C1F70895949A089553
:1000E000949808958AEF86BF8ABD08958AE086BFF6
:1000F0008ABD089588B3837F88BB0895D5D0ECD09E
:1001000088B3837F88BB83B7826083BF8EB58260EC
:100110008EBD00000895E3D0B8DF88B3837F88BB2D
:10012000949808958AE18DB980E48EB912B88CE074
:1001300089B982E08BB988E98AB986E083B90895E4
:100140008CB95E9BFECF5E9A08958AE0F9DF8DE060
:10015000F7CFCF93DF93EC018991F2DF8881811192
:10016000FBCFDF91CF91F1CF0F931F93CF93DF930D
:10017000CDB7DD27C350CDBF9C0160E177E2BED291
:10018000E62F972F862F60EF78EDA7D2280F391F23
:10019000C90168EE73E0B2D2162F972F862F68EE52
:1001A00073E09BD2281B390BC90164E670E0A6D22C
:1001B000AB01CB01992764E670E08FD2B901681BCF
:1001C000790BCB016AE070E099D2082F80E38E0FA3
:1001D00049835A836B83B4DF80E3810FB1DF4981A8
:1001E00080E3840FADDF6B8180E3860FA9DF80E3BE
:1001F000800FA6DFCD5FCDBFDF91CF911F910F9113
:10020000A4CF1F920F920FB60F9211241BBE0F9016
:100210000FBE0F901F9018951F920F920FB60F925E
:1002200011241BBE0F900FBE0F901F9018951F92A8
:100230000F920FB60F9211248F931DBC1CBC8CB172
:10024000809360008F910F900FBE0F901F901895B4
:1002500080EC8BBF08951BBE089515BE1BBE08958C
:10026000CF93C82F88B318BA8BE040D08C2F3ED0E4
:100270008C2F3CD0C49ACF9108951F93CF93DF93D6
:100280001F92CDB7DD27182F88B318BA8AE069838B
:100290002DD0812F2BD06981862F28D0C49A0F9022
:1002A000DF91CF911F91089560E081E2E6DF66E97A
:1002B00080E2E3DF60E084E2E0DF62E383E2DDDF4F
:1002C00060E086E2DADF65E085E2D7DF6FEF87E2A4
:1002D000D4DF60E98AE2D1CF66E28DE2CECF60E082
:1002E0008DE2CBCF8BE0BCCF88E0BACF8FB98BE16A
:1002F000769902C08DB9FCCF80E48EB98FB1089594
:10030000FC018081823011F0833021F487E080830A
:10031000148213828181843011F0853031F487E0BA
:10032000818381E090E094838383CF01F4CEFC014C
:1003300087E08083818382831482138216821782EE
:10034000108615820895FC0110821482138208958C
:10035000FC018081823041F018F4882329F008C024
:10036000833011F0863021F487E080831482138279
:100370008181843019F0853009F0089587E0818308
:1003800081E090E094838383CF01C5CEFC0180811E
:10039000873031F481E09181973019F480E008953D
:1003A00081E0089580E008959F92AF92BF92CF922E
:1003B000DF92EF92FF920F931F93CF93DF93EC01A5
:1003C0001C821B8287E0E82E92E0D92E26E0A22E26
:1003D00001E010E034E0932E45E0C42E53E0B52E4A
:1003E0008B819C818230910508F091C0FE01E80F5D
:1003F000F91F8081833009F459C028F4882379F0EB
:10040000823099F17EC0853009F471C008F463C070
:10041000863009F076C01C821B82188272C08F81E0
:10042000882301F1E8821C821B82CE0167DEFA80FC
:1004300087E0F81681F082E0F81631F083E0F812D8
:1004400050C0CE014DDE02C0CE0148DEF8821C82D3
:100450001B82FA8246C0CE0141DED8821C821B82FA
:10046000DA823FC0CE0119DE4CC08885882321F096
:10047000CE0146DF188208C08E81882341F0CE016C
:100480003FDFCE0119DEA8821C821B823AC0CE015A
:1004900004DE8F818823A9F1E8821C821B82CE01B1
:1004A0001FDEB8821C821B82BA822BC08885811114
:1004B000DFCF8E818111E3CFCE01EFDD8F818823E5
:1004C00001F1E8821C821B82CE0108DED8821C82E8
:1004D0001B82DA8216C08D81811113C0E9821C83D0
:1004E0000B83CE0103DEC9821C830B830AC08D817E
:1004F000882339F0E9821C830B83CE01F3DD9982D6
:10050000F3CF8B819C8101969C838B8369CF1E8264
:100510001F821886DF91CF911F910F91FF90EF906E
:10052000DF90CF90BF90AF909F900895FC01462F31
:1005300050E04730510540F54B5E5F4F4F935F935E
:10054000089581E09081992301F11EC0908191501E
:1005500081E09530D0F018C081E090819230A1F414
:1005600014C081E09081933079F40FC081E09181D3
:10057000943051F40AC081E09181953029F405C08E
:1005800081E09081963009F080E00895FC0185813A
:100590000895FC016583089521E0FC0126830895F8
:1005A00021E0FC012783089521E0FC0120870895C4
:1005B0008DE690E0C8DE7894C1E020B321702C274E
:1005C00080916B0090916C00880F991F822B909303
:1005D0006C0080936B00209162009F70211107C016
:1005E0008F3F9F4009F062C0C09362005FC02091BE
:1005F0006100892BD9F4109262001092630010926E
:1006000064001092650010926600109267001092CC
:1006100068001092690010926A00211104C08DE6F2
:1006200090E0BEDF43C01092610040C021113EC087
:100630008091670090916800A0916900B0916A0074
:10064000880F991FAA1FBB1F81608093670090933A
:100650006800A0936900B0936A008F3F9F4FAF4F2F
:10066000BF4F21F58091630090916400A0916500D7
:10067000B09166000196A11DB11D80936300909317
:100680006400A0936500B09366001092670010921A
:1006900068001092690010926A000897A105B105E0
:1006A00029F4C09361008DE690E07EDF1BDE87FFBA
:1006B00004C08DE690E070DF08C086FF02C060E0F5
:1006C00001C061E08DE690E064DF8DE690E06CDED5
:1006D0008FEF00008150E9F770CF0024552704C048
:1006E000080E591F880F991F009729F07695679576
:1006F000B8F37105B9F7802D952F0895AA1BBB1B80
:1007000051E107C0AA1FBB1FA617B70710F0A61B11
:10071000B70B881F991F5A95A9F780959095BC0132
:08072000CD010895F894FFCF0C
:00000001FF
